:020000000828CE
:020008000900ED
:10001000831603139D018701831203139401980132
:10002000900197019D010130870083160317890114
:1000300088018B01F030860081018117831603133C
:100040009501960183120317890183120313970107
:10005000831603138501831203138501831203138F
:10006000083086000030861B6A200530061B6A2097
:100070000A30861A6A200F30061A6A200430860079
:100080001430861B6A201930061B6A201E30861A1F
:100090006A202330061A6A20023086002830861B28
:1000A0006A202D30061B6A203230861A6A203730CB
:1000B000061A6A20013086003C30861B6A204130D7
:1000C000061B6A204630861A6A204B30061A6A20C0
:1000D00086012E2882073430A200CA20BB200800E7
:1000E0003A30A200CA20BB2008004330A200CA2038
:1000F000BB2008004B30A200CA20BB2008005430AF
:10010000A200CA20BB2008005F30A200CA20BB208A
:1001100008006630A200CA20BB2008007130A2008F
:10012000CA20BB2008007E30A200CA20BB200800E5
:100130008730A200CA20BB2008009730A200CA2046
:10014000BB200800AA30A200CA20BB200800BF3094
:10015000A200CA20BB200800CA30A200CA20BB20CF
:100160000800DF30A200CA20BB200800FE30A20039
:10017000CA20BB2008000130A1000130A000A00B64
:10018000BF28A10BBD280000000000000000A20B4A
:0C019000BB28080001308506870008002D
:04400E00F120FF3F5F
:00000001FF
