:100F7400BB2F83160317890188018B01003086007B
:100F840081018117831603139501960183120317B8
:100F9400890183120313970130308600000000009A
:100FA4001B30A200B930A1002030A000A00BD82F24
:100FB400A10BD62F0000000000000000A20BD42FCC
:100FC4005E30A300A30BE42F353086000000000040
:100FD40000001B30A200B930A1002030A000A00BFB
:100FE400F12FA10BEF2F0000000000000000A20B66
:0C0FF400ED2F5E30A300A30BFD2FCE2FCD
:04400E00F120FF3F5F
:00000001FF
