:100F3E00A02F831603139D018701831203139401BF
:100F4E009801900197019D018701FF30870083165C
:100F5E000317890188018B01F0308600810181170A
:100F6E0083160313950196018312031789018312C9
:100F7E00031397018312031308308600AA30061A52
:100F8E00FE2FB030861AFE2FA330061BFE2FC43064
:100F9E00861BFE2F04308600B730061AFE2FB8309F
:100FAE00861AFE2FB930061BFE2FC330861BFE2F6E
:100FBE0002308600B430061AFE2FB530861AFE2F88
:100FCE00B630061BFE2FC230861BFE2F0130860068
:100FDE00B130061AFE2FB230861AFE2FB330061B22
:100FEE00FE2FC130861BFE2FFF30FE2FC12F870034
:020FFE00C12F01
:04400E00F120FF3F5F
:00000001FF
