:100F38009D2F831603139D018701831203139401C8
:100F48009801900197019D018701FF308700831662
:100F58000317890188018B01F03086008101811710
:100F680083160313950196018312031789018312CF
:100F78000313970183120313083086004430861B3D
:100F8800FC2F2330061BFC2F3030861AFC2F2A300A
:100F9800061AFC2F043086004330861BFC2F39309C
:100FA800061BFC2F3830861AFC2F3730061AFC2F08
:100FB800023086004230861BFC2F3630061BFC2F81
:100FC8003530861AFC2F3430061AFC2F0130860083
:100FD8004130861BFC2F3330061BFC2F3230861A1B
:100FE800FC2F3130061AFC2F8601FF30FC2FBE2F54
:080FF800871387008717BE2F45
:04400E00F120FF3F5F
:00000001FF
