:100F7800BD2F831603139D01870183120313940168
:100F88009801900197019D0187018316031395012C
:100F98009601831603178B0183160317FF3086000B
:100FA800890188018101860181178312031789014C
:100FB8008316031395018312031397018601831285
:100FC80003133830861BFF2F3730061BFF2F3630B0
:100FD800861AFF2F3530061AFF2F34308619FF2F57
:100FE80033300619FF2F32308618FF2F313006189C
:080FF800FF2F3030FF2F8700AE
:04400E00F120FF3F5F
:00000001FF
